:02000004C0D06A
:10000000F0B5A5B0064619AD284600F09FFBA885BF
:1000100002AC000450D10196273419A800F0B2FABE
:10002000239002AE002548223046294600F070F8A1
:100030000127377229480390294802903046093039
:1000400028497944062200F065FB17362649794491
:100050000A22304600F05EFBE5704E20A07056206C
:100060006070522020701B2060760F951F487844E6
:1000700000F096F800F01EFA0D2802D3FF2000F0E1
:1000800041FA189502A817901948784414901697C9
:1000900038021590019C002C0BD060681690E06827
:1000A000189014A800F014FA1598206000F01EFAB9
:1000B00002E014A800F00CFA00F058FA19A98842DE
:1000C00002D1239800F05EFA19A8808D002802D191
:1000D000002025B0F0BD00F00DF8C0463C007A00CD
:1000E000AF00AF00F50900006A0A0000CF09000068
:1000F000C80900000446724604487844214600F0CE
:100100004FF800F033FA214600F02CFBC80900003C
:1001100010B513460446CAB2194600F0FFFA20464D
:1001200010BDB0B582B001ACE0700120A070002518
:100130006570662020700421204600F0F1F903214B
:1001400020462A4600F004FA02B0B0BDF0B581B0F6
:100150000D4604469C201149085C03281CD100F080
:10016000EBF9002804D068460321002200F0F0F9E2
:100170006E46B57066203070280A707003273046CE
:10018000394600F0CDF9A9B2204600F0C9F90022A5
:100190003046394600F0DCF901B0F0BD0002002025
:1001A00083B0F0B58CB011AC0EC4002800D166E16C
:1001B000044611A806902078002800D15FE10025B0
:1001C000002805D0252803D0601940786D1CF7E77A
:1001D00020462946FFF7BAFF605D252801D0641943
:1001E000EAE76019441C0026202004900A200596A6
:1001F0000296334619462278641C00232D2AF9D032
:10020000472A13DC2F2A1EDD1346303B0A2B00D36E
:10021000ABE0302317465F40374300D0049B0A27EA
:100220007743BE18303E04930B46E3E7672A04DDAC
:10023000722A1DDD732A35D11FE0622A37DC482A75
:100240006DD1012017E0252A79D02A2A20D02E2A24
:1002500000D08AE021782A2900D086E061784829F8
:1002600003D0732901D068297FD1641C012313E0D6
:10027000682A59D1002002901020069B1A1D069270
:10028000CAB21F68012A20DD022A0B46B2D169E0FA
:100290002178732969D1022306990A1D06920968FB
:1002A0000591A7E7752A4CD0782A3FD05DE0632AF4
:1002B00050D0642A59D10698011D069105680B9506
:1002C0000A20002D5AD400215BE0002A029B059DE4
:1002D00005D100217A5C491C002AFBD14D1E102853
:1002E00047D1002D00D166E73878002B05D0012BCF
:1002F00011D10595674D7D4402E00595634D7D4420
:100300000F2606400009285CFFF70BFFA85DFFF7EA
:1003100008FF029B059D7F1C6D1EE5D14BE7582A07
:1003200023D10120029001E0702A1ED10698011D00
:10033000069105680B9500200190102022E0601EB8
:100340000EE00698011D069105680B9500200190AE
:100350000A2017E00698011D069100680B900BA873
:10036000012171E03878002871D047487844052190
:100370006AE038462946FFF7E9FE71E06D420B95C9
:1003800001210191A842039001D901270FE0721EBB
:1003900007461646002103983A460B4600F08CF9B2
:1003A0004A1E9141A84202D8721E0029F0D001983D
:1003B0000028059500D0761E049A0025002809D053
:1003C000D0B2302808D107A82D210170012029467C
:1003D000054602E0294600E00121B01E0D280CD898
:1003E00007A84019761ED2B20491314600F096F962
:1003F0000499761E6D1C002EFBD1002903D007A89E
:100400002D2141556D1C002F1CD00298002802D0D0
:100410002348784401E0214878440490039E0598DD
:10042000394600F0BDF8314600F040F90498405CD0
:1004300007A948553846314600F0B2F86D1CBE4257
:100440000746ECD907A82946FFF780FEB3E60598D2
:10045000471C0F4878440121FFF778FE7F1EF8D132
:10046000AE4200D8A7E6701B00D1A4E6AD1B0A4837
:1004700078440121FFF76AFE6D1CF8D39BE60CB0AF
:10048000F0BC01BC03B0004770070000E4070000A7
:1004900067050000FC0700004B050000CA060000CD
:1004A000E006000001DF002900D170470846FFF791
:1004B00021FE000080B584B0002002900190034826
:1004C00001A9FFF7EFFF04B080BDC046380100600E
:1004D00080B584B0002102910190034801A9FFF783
:1004E000E1FF04B080BDC0460D67006080B582B0FA
:1004F0000020019002486946FFF7D4FF02B080BD9A
:100500008D68006080B584B000210291019003489D
:1005100001A9FFF7C7FF04B080BDC046BE9A0060C6
:1005200080B584B00191009002486946FFF7BAFF98
:1005300004B080BD8183006080B582B0002001904E
:1005400002486946FFF7AEFF02B080BDBB84006081
:1005500080B586B001AB07C3034801A9FFF7A2FF2E
:1005600080B206B080BDC046E485006080B582B030
:100570000020019002486946FFF794FF02B080BD59
:10058000B187006080B584B00021029101900348DA
:1005900001A9FFF787FF04B080BDC046060B0160CC
:1005A000002243088B4274D303098B425FD3030AB2
:1005B0008B4244D3030B8B4228D3030C8B420DD3C5
:1005C000FF22090212BA030C8B4202D31212090253
:1005D00065D0030B8B4219D300E0090AC30B8B4291
:1005E00001D3CB03C01A5241830B8B4201D38B033F
:1005F000C01A5241430B8B4201D34B03C01A5241E4
:10060000030B8B4201D30B03C01A5241C30A8B4226
:1006100001D3CB02C01A5241830A8B4201D38B0211
:10062000C01A5241430A8B4201D34B02C01A5241B5
:10063000030A8B4201D30B02C01A5241CDD2C30927
:100640008B4201D3CB01C01A524183098B4201D3A3
:100650008B01C01A524143098B4201D34B01C01A8E
:10066000524103098B4201D30B01C01A5241C30806
:100670008B4201D3CB00C01A524183088B4201D375
:100680008B00C01A524143088B4201D34B00C01A61
:100690005241411A00D20146524110467047FFE7CD
:1006A00001B5002000F006F802BDC0460029F7D0D1
:1006B00076E770477047C046F0B5CE46474680B5EE
:1006C000070099463B0C9C4613041B0C1D000E00B2
:1006D00061460004140C000C45434B4360436143E6
:1006E000C0182C0C20188C46834203D980235B024F
:1006F0009846C444494679437243030C63442D042D
:100700002D0CC918000440198918C0BCB946B04660
:10071000F0BDC04610B500F008F810BD0B0010B5D4
:1007200011001A0000F00AF810BD002310B59A421B
:1007300000D110BDCC5CC4540133F8E7030082182B
:10074000934200D1704719700133F9E7F0C0414678
:100750004A4653465C466D4676467EC02838F0C809
:100760000020704710307CC890469946A246AB46A0
:10077000B54608C82838F0C8081C00D10120184721
:100780004175746F20417070726F76616C004D61BD
:100790006E75616C20417070726F76616C004261A1
:1007A000636B005075626C6963206B6579732065BB
:1007B00078706F7274004170706C69636174696FF6
:1007C0006E006973207265616479005365747469A1
:1007D0006E67730056657273696F6E00312E362E28
:1007E000310051756974005369676E006D657373EC
:1007F000616765004D657373616765206861736843
:100800000043616E63656C007369676E6174757235
:100810006500526576696577007472616E73616315
:1008200074696F6E00416D6F756E7400416464721F
:10083000657373004665657300416363657074009A
:10084000616E642073656E640052656A656374004E
:10085000436F6E6669726D005468652064657269E5
:10086000766174696F6E00706174682069732075B9
:100870006E757375616C2100446572697661746987
:100880006F6E20706174680052656A6563742069D8
:100890006620796F75277265006E6F7420737572AC
:1008A0006500417070726F7665206465726976616B
:1008B00074696F6E00417070726F766500436F6E81
:1008C0006669726D20746F6B656E004578706F722B
:1008D00074007075626C6963206B65793F005468C1
:1008E00065206368616E6765207061746800697374
:1008F00020756E757375616C004368616E67652065
:100900007061746800546865207369676E20706157
:100910007468005369676E207061746800556E7664
:100920006572696669656420696E707574730055D7
:10093000706461746500204C6564676572204C6961
:100940007665006F722074686972642070617274D9
:10095000790077616C6C657420736F66747761726F
:100960006500436F6E74696E7565005365677769DE
:100970007420706172736564206F6E63650A005540
:100980004E4B4E4F574E0052455741524400457210
:10099000726F72203A2046656573206E6F74206313
:1009A0006F6E73697374656E74006F6D6E69004F5E
:1009B0004D4E4920005553445420004D4149442098
:1009C000004F4D4E492061737365742025642000EB
:1009D000252E2A4800416464726573732077617321
:1009E00020616C726561647920636865636B65641E
:1009F0000A00416D6F756E74206E6F74206D6174A6
:100A0000636865640A0041646472657373206E6F85
:100A100074206D6174636865640A004665657320BF
:100A20006973206E6F74206D6174636865640A0079
:100A30006F75747075742023256400526176656E3D
:100A40000048656C6C6F2066726F6D206C69746510
:100A5000636F696E0A00426974636F696E00496E64
:100A6000736964652061206C696272617279200A21
:100A7000000000004F505F52455455524E00000098
:100A80004F505F4352454154450000004153534588
:100A900054205441470000004153534554205645CB
:100AA000524946494552000041535345542052454E
:100AB0005354524943544544000000005261766546
:100AC0006E636F696E00657863657074696F6E5BE5
:100AD00025645D3A204C523D3078253038580A0064
:100AE0004552524F5200303132333435363738396F
:100AF0006162636465663031323334353637383994
:100B00004142434445460000000000000000000050
:100B100000000000000000000000000000000000D5
:100B200000000000000000000000000000000000C5
:100B300000000000000000000000000000000000B5
:04000005C0D0000166
:00000001FF
